:03000000020A9D54
:0C0A9D00787FE4F6D8FD758110020AE4B1
:100B8900020A000002080064020D03E8020F0000D7
:030B9900010C014B
:100B6D00D2AFD2A9D2AB758911D28C758AFE758C94
:0C0B7D00FF758BFE758DFF75900180FEEA
:03000B000208EDFB
:1008ED00C0E0C0F0C083C082C0D075D000C000C0D1
:1008FD0001C002C003C004C005C006C007AE0DAFE5
:10090D000EAB07AA06EA3395E0F9F8C374FF9BFF17
:10091D0074FF9AFEE499FDE498FCE4FB7A01F9F882
:10092D00120B29AF038F8AAE0DAF0EAB07AA06EAE5
:10093D003395E0F9F8C374FF9BFF74FF9AFEE499B9
:10094D00FDE498FCE4FB7A01F9F8120B298F8C0574
:10095D000BE50B7002050AC39510E50F6480F8E5F1
:10096D000A6480984041AF0CEF3395E0FEEF2510FF
:10097D00F510EE350FF50FC3E5109509E508648008
:10098D00F8E50F648098500CE5109400E50F648035
:10099D0094805006E50CF404F50C750A00750B00F7
:1009AD006390FFC28CD28ED007D006D005D004D074
:1009BD0003D002D001D000D0D0D082D083D0F0D0DF
:0209CD00E03216
:03001B00020800D8
:10080000C0E0C0F0C083C082C0D075D000C000C0BE
:1008100001C002C003C004C005C006C007AE0DAFD2
:100820000EAB07AA06EA3395E0F9F8C374FF9BFF05
:1008300074FF9AFEE499FDE498FCE4FB7A01F9F870
:10084000120B29AF038F8BAE0DAF0EAB07AA06EAD2
:100850003395E0F9F8C374FF9BFF74FF9AFEE499A7
:10086000FDE498FCE4FB7A01F9F8120B298F8D0561
:100870000BE50B7002050AC3E5099510FFE5089525
:100880000FFEC3E50B9FEE6480F8E50A6480984094
:1008900041AF0CEF3395E0FEEF2510F510EE350F6C
:1008A000F50FC3E5109509E5086480F8E50F64804D
:1008B00098500CE5109400E50F648094805006E594
:1008C0000CF404F50C750A00750B006390FFC28EE2
:1008D000D28CD007D006D005D004D003D002D001EE
:0D08E000D000D0D0D082D083D0F0D0E03254
:100AA900020B6DE493A3F8E493A34003F68001F2EB
:100AB90008DFF48029E493A3F85407240CC8C3334E
:100AC900C4540F4420C8834004F456800146F6DF1D
:100AD900E4800B0102040810204080900B89E47E19
:100AE900019360BCA3FF543F30E509541FFEE49312
:100AF900A360010ECF54C025E060A840B8E493A3D9
:100B0900FAE493A3F8E493A3C8C582C8CAC583CA03
:100B1900F0A3C8C582C8CAC583CADFE9DEE780BEBB
:010B9C000058
:100B2900C2D5E830E70FB2D5E4C39BFBE49AFAE4F7
:100B390099F9E498F8EC30E717B2D5120B5F120A6D
:100B49000BE4C39BFBE49AFAE499F9E498F880036F
:100B5900120A0B30D50DE4C39FFFE49EFEE49DFD10
:040B6900E49CFC22EA
:1009CF0075F008758200EF2FFFEE33FECD33CDCCDF
:1009DF0033CCC58233C5829BED9AEC99E582984062
:1009EF000CF582EE9BFEED9AFDEC99FC0FD5F0D63F
:1009FF00E4CEFBE4CDFAE4CCF9A88222B800C1B969
:100A0F000059BA002DEC8BF084CFCECDFCE5F0CBA6
:100A1F00F97818EF2FFFEE33FEED33FDEC33FCEBDF
:100A2F0033FB10D703994004EB99FB0FD8E5E4F99A
:100A3F00FA227818EF2FFFEE33FEED33FDEC33FC87
:100A4F00C933C910D7059BE99A4007EC9BFCE99A7B
:100A5F00F90FD8E0E4C9FAE4CCFB2275F010EF2FC0
:100A6F00FFEE33FEED33FDCC33CCC833C810D707C0
:100A7F009BEC9AE899400AED9BFDEC9AFCE899F8FB
:0E0A8F000FD5F0DAE4CDFBE4CCFAE4C8F9228E
:00000001FF
